{
  "_format": "hh-sol-artifact-1",
  "contractName": "Voting",
  "sourceName": "contracts/Voting.sol",
  "abi": [
    {
      "inputs": [
        {
          "internalType": "string[]",
          "name": "_candidateNames",
          "type": "string[]"
        }
      ],
      "stateMutability": "nonpayable",
      "type": "constructor"
    },
    {
      "anonymous": false,
      "inputs": [
        {
          "indexed": true,
          "internalType": "uint256",
          "name": "voterId",
          "type": "uint256"
        },
        {
          "indexed": true,
          "internalType": "uint256",
          "name": "candidateId",
          "type": "uint256"
        },
        {
          "indexed": false,
          "internalType": "bytes32",
          "name": "voterHash",
          "type": "bytes32"
        }
      ],
      "name": "Voted",
      "type": "event"
    },
    {
      "inputs": [
        {
          "internalType": "uint256",
          "name": "",
          "type": "uint256"
        },
        {
          "internalType": "uint256",
          "name": "",
          "type": "uint256"
        }
      ],
      "name": "candidateVoters",
      "outputs": [
        {
          "internalType": "bytes32",
          "name": "",
          "type": "bytes32"
        }
      ],
      "stateMutability": "view",
      "type": "function"
    },
    {
      "inputs": [
        {
          "internalType": "uint256",
          "name": "",
          "type": "uint256"
        }
      ],
      "name": "candidates",
      "outputs": [
        {
          "internalType": "uint256",
          "name": "id",
          "type": "uint256"
        },
        {
          "internalType": "string",
          "name": "name",
          "type": "string"
        },
        {
          "internalType": "uint256",
          "name": "voteCount",
          "type": "uint256"
        }
      ],
      "stateMutability": "view",
      "type": "function"
    },
    {
      "inputs": [],
      "name": "candidatesCount",
      "outputs": [
        {
          "internalType": "uint256",
          "name": "",
          "type": "uint256"
        }
      ],
      "stateMutability": "view",
      "type": "function"
    },
    {
      "inputs": [],
      "name": "electionCommission",
      "outputs": [
        {
          "internalType": "address",
          "name": "",
          "type": "address"
        }
      ],
      "stateMutability": "view",
      "type": "function"
    },
    {
      "inputs": [
        {
          "internalType": "uint256",
          "name": "id",
          "type": "uint256"
        }
      ],
      "name": "getCandidate",
      "outputs": [
        {
          "internalType": "string",
          "name": "",
          "type": "string"
        },
        {
          "internalType": "uint256",
          "name": "",
          "type": "uint256"
        }
      ],
      "stateMutability": "view",
      "type": "function"
    },
    {
      "inputs": [
        {
          "internalType": "uint256",
          "name": "candidateId",
          "type": "uint256"
        }
      ],
      "name": "getCandidateVoters",
      "outputs": [
        {
          "internalType": "bytes32[]",
          "name": "",
          "type": "bytes32[]"
        }
      ],
      "stateMutability": "view",
      "type": "function"
    },
    {
      "inputs": [
        {
          "internalType": "uint256",
          "name": "",
          "type": "uint256"
        }
      ],
      "name": "hasVoted",
      "outputs": [
        {
          "internalType": "bool",
          "name": "",
          "type": "bool"
        }
      ],
      "stateMutability": "view",
      "type": "function"
    },
    {
      "inputs": [
        {
          "internalType": "uint256",
          "name": "voterId",
          "type": "uint256"
        },
        {
          "internalType": "uint256",
          "name": "candidateId",
          "type": "uint256"
        }
      ],
      "name": "recordVote",
      "outputs": [],
      "stateMutability": "nonpayable",
      "type": "function"
    },
    {
      "inputs": [
        {
          "internalType": "uint256",
          "name": "",
          "type": "uint256"
        }
      ],
      "name": "voterHashes",
      "outputs": [
        {
          "internalType": "bytes32",
          "name": "",
          "type": "bytes32"
        }
      ],
      "stateMutability": "view",
      "type": "function"
    }
  ],
  "bytecode": "0x60806040523480156200001157600080fd5b5060405162001566380380620015668339818101604052810190620000379190620003ca565b33600560006101000a81548173ffffffffffffffffffffffffffffffffffffffff021916908373ffffffffffffffffffffffffffffffffffffffff16021790555060005b81518110156200013357600160008154809291906200009a9062000454565b919050555060405180606001604052806001548152602001838381518110620000c857620000c7620004a1565b5b60200260200101518152602001600081525060008060015481526020019081526020016000206000820151816000015560208201518160010190816200010f919062000711565b506040820151816002015590505080806200012a9062000454565b9150506200007b565b5050620007f8565b6000604051905090565b600080fd5b600080fd5b600080fd5b6000601f19601f8301169050919050565b7f4e487b7100000000000000000000000000000000000000000000000000000000600052604160045260246000fd5b6200019f8262000154565b810181811067ffffffffffffffff82111715620001c157620001c062000165565b5b80604052505050565b6000620001d66200013b565b9050620001e4828262000194565b919050565b600067ffffffffffffffff82111562000207576200020662000165565b5b602082029050602081019050919050565b600080fd5b600080fd5b600067ffffffffffffffff82111562000240576200023f62000165565b5b6200024b8262000154565b9050602081019050919050565b60005b83811015620002785780820151818401526020810190506200025b565b60008484015250505050565b60006200029b620002958462000222565b620001ca565b905082815260208101848484011115620002ba57620002b96200021d565b5b620002c784828562000258565b509392505050565b600082601f830112620002e757620002e66200014f565b5b8151620002f984826020860162000284565b91505092915050565b6000620003196200031384620001e9565b620001ca565b905080838252602082019050602084028301858111156200033f576200033e62000218565b5b835b818110156200038d57805167ffffffffffffffff8111156200036857620003676200014f565b5b808601620003778982620002cf565b8552602085019450505060208101905062000341565b5050509392505050565b600082601f830112620003af57620003ae6200014f565b5b8151620003c184826020860162000302565b91505092915050565b600060208284031215620003e357620003e262000145565b5b600082015167ffffffffffffffff8111156200040457620004036200014a565b5b620004128482850162000397565b91505092915050565b7f4e487b7100000000000000000000000000000000000000000000000000000000600052601160045260246000fd5b6000819050919050565b600062000461826200044a565b91507fffffffffffffffffffffffffffffffffffffffffffffffffffffffffffffffff82036200049657620004956200041b565b5b600182019050919050565b7f4e487b7100000000000000000000000000000000000000000000000000000000600052603260045260246000fd5b600081519050919050565b7f4e487b7100000000000000000000000000000000000000000000000000000000600052602260045260246000fd5b600060028204905060018216806200052357607f821691505b602082108103620005395762000538620004db565b5b50919050565b60008190508160005260206000209050919050565b60006020601f8301049050919050565b600082821b905092915050565b600060088302620005a37fffffffffffffffffffffffffffffffffffffffffffffffffffffffffffffffff8262000564565b620005af868362000564565b95508019841693508086168417925050509392505050565b6000819050919050565b6000620005f2620005ec620005e6846200044a565b620005c7565b6200044a565b9050919050565b6000819050919050565b6200060e83620005d1565b620006266200061d82620005f9565b84845462000571565b825550505050565b600090565b6200063d6200062e565b6200064a81848462000603565b505050565b5b8181101562000672576200066660008262000633565b60018101905062000650565b5050565b601f821115620006c1576200068b816200053f565b620006968462000554565b81016020851015620006a6578190505b620006be620006b58562000554565b8301826200064f565b50505b505050565b600082821c905092915050565b6000620006e660001984600802620006c6565b1980831691505092915050565b6000620007018383620006d3565b9150826002028217905092915050565b6200071c82620004d0565b67ffffffffffffffff81111562000738576200073762000165565b5b6200074482546200050a565b6200075182828562000676565b600060209050601f83116001811462000789576000841562000774578287015190505b620007808582620006f3565b865550620007f0565b601f19841662000799866200053f565b60005b82811015620007c3578489015182556001820191506020850194506020810190506200079c565b86831015620007e35784890151620007df601f891682620006d3565b8355505b6001600288020188555050505b505050505050565b610d5e80620008086000396000f3fe608060405234801561001057600080fd5b50600436106100935760003560e01c80634521083f116100665780634521083f1461014957806365b2389a146101795780638f255bd714610195578063aab46b7f146101c5578063ecca031f146101e357610093565b8063211cdb24146100985780632d35a8a2146100c85780633477ee2e146100e657806335b8e82014610118575b600080fd5b6100b260048036038101906100ad9190610785565b610213565b6040516100bf91906107cb565b60405180910390f35b6100d061022b565b6040516100dd91906107f5565b60405180910390f35b61010060048036038101906100fb9190610785565b610231565b60405161010f939291906108a0565b60405180910390f35b610132600480360381019061012d9190610785565b6102e3565b6040516101409291906108de565b60405180910390f35b610163600480360381019061015e9190610785565b6103c1565b60405161017091906109cc565b60405180910390f35b610193600480360381019061018e91906109ee565b61047d565b005b6101af60048036038101906101aa91906109ee565b6106d3565b6040516101bc91906107cb565b60405180910390f35b6101cd610704565b6040516101da9190610a6f565b60405180910390f35b6101fd60048036038101906101f89190610785565b61072a565b60405161020a9190610aa5565b60405180910390f35b60036020528060005260406000206000915090505481565b60015481565b600060205280600052604060002060009150905080600001549080600101805461025a90610aef565b80601f016020809104026020016040519081016040528092919081815260200182805461028690610aef565b80156102d35780601f106102a8576101008083540402835291602001916102d3565b820191906000526020600020905b8154815290600101906020018083116102b657829003601f168201915b5050505050908060020154905083565b60606000806000808581526020019081526020016000206040518060600160405290816000820154815260200160018201805461031f90610aef565b80601f016020809104026020016040519081016040528092919081815260200182805461034b90610aef565b80156103985780601f1061036d57610100808354040283529160200191610398565b820191906000526020600020905b81548152906001019060200180831161037b57829003601f168201915b505050505081526020016002820154815250509050806020015181604001519250925050915091565b60606000821180156103d557506001548211155b610414576040517f08c379a000000000000000000000000000000000000000000000000000000000815260040161040b90610b6c565b60405180910390fd5b6004600083815260200190815260200160002080548060200260200160405190810160405280929190818152602001828054801561047157602002820191906000526020600020905b81548152602001906001019080831161045d575b50505050509050919050565b600560009054906101000a900473ffffffffffffffffffffffffffffffffffffffff1673ffffffffffffffffffffffffffffffffffffffff163373ffffffffffffffffffffffffffffffffffffffff161461050d576040517f08c379a000000000000000000000000000000000000000000000000000000000815260040161050490610bd8565b60405180910390fd5b6002600083815260200190815260200160002060009054906101000a900460ff161561056e576040517f08c379a000000000000000000000000000000000000000000000000000000000815260040161056590610c44565b60405180910390fd5b60008111801561058057506001548111155b6105bf576040517f08c379a00000000000000000000000000000000000000000000000000000000081526004016105b690610b6c565b60405180910390fd5b60016002600084815260200190815260200160002060006101000a81548160ff02191690831515021790555060008242604051602001610600929190610c85565b604051602081830303815290604052805190602001209050806003600085815260200190815260200160002081905550600080838152602001908152602001600020600201600081548092919061065690610ce0565b91905055506004600083815260200190815260200160002081908060018154018082558091505060019003906000526020600020016000909190919091505581837fd7e4c2e2c85f402dde7dac02e67804187cc7d237158ca9506779c8946b091437836040516106c691906107cb565b60405180910390a3505050565b600460205281600052604060002081815481106106ef57600080fd5b90600052602060002001600091509150505481565b600560009054906101000a900473ffffffffffffffffffffffffffffffffffffffff1681565b60026020528060005260406000206000915054906101000a900460ff1681565b600080fd5b6000819050919050565b6107628161074f565b811461076d57600080fd5b50565b60008135905061077f81610759565b92915050565b60006020828403121561079b5761079a61074a565b5b60006107a984828501610770565b91505092915050565b6000819050919050565b6107c5816107b2565b82525050565b60006020820190506107e060008301846107bc565b92915050565b6107ef8161074f565b82525050565b600060208201905061080a60008301846107e6565b92915050565b600081519050919050565b600082825260208201905092915050565b60005b8381101561084a57808201518184015260208101905061082f565b60008484015250505050565b6000601f19601f8301169050919050565b600061087282610810565b61087c818561081b565b935061088c81856020860161082c565b61089581610856565b840191505092915050565b60006060820190506108b560008301866107e6565b81810360208301526108c78185610867565b90506108d660408301846107e6565b949350505050565b600060408201905081810360008301526108f88185610867565b905061090760208301846107e6565b9392505050565b600081519050919050565b600082825260208201905092915050565b6000819050602082019050919050565b610943816107b2565b82525050565b6000610955838361093a565b60208301905092915050565b6000602082019050919050565b60006109798261090e565b6109838185610919565b935061098e8361092a565b8060005b838110156109bf5781516109a68882610949565b97506109b183610961565b925050600181019050610992565b5085935050505092915050565b600060208201905081810360008301526109e6818461096e565b905092915050565b60008060408385031215610a0557610a0461074a565b5b6000610a1385828601610770565b9250506020610a2485828601610770565b9150509250929050565b600073ffffffffffffffffffffffffffffffffffffffff82169050919050565b6000610a5982610a2e565b9050919050565b610a6981610a4e565b82525050565b6000602082019050610a846000830184610a60565b92915050565b60008115159050919050565b610a9f81610a8a565b82525050565b6000602082019050610aba6000830184610a96565b92915050565b7f4e487b7100000000000000000000000000000000000000000000000000000000600052602260045260246000fd5b60006002820490506001821680610b0757607f821691505b602082108103610b1a57610b19610ac0565b5b50919050565b7f496e76616c69642063616e646964617465000000000000000000000000000000600082015250565b6000610b5660118361081b565b9150610b6182610b20565b602082019050919050565b60006020820190508181036000830152610b8581610b49565b9050919050565b7f4f6e6c792045432063616e207265636f726420766f7465730000000000000000600082015250565b6000610bc260188361081b565b9150610bcd82610b8c565b602082019050919050565b60006020820190508181036000830152610bf181610bb5565b9050919050565b7f566f74657220616c726561647920766f74656400000000000000000000000000600082015250565b6000610c2e60138361081b565b9150610c3982610bf8565b602082019050919050565b60006020820190508181036000830152610c5d81610c21565b9050919050565b6000819050919050565b610c7f610c7a8261074f565b610c64565b82525050565b6000610c918285610c6e565b602082019150610ca18284610c6e565b6020820191508190509392505050565b7f4e487b7100000000000000000000000000000000000000000000000000000000600052601160045260246000fd5b6000610ceb8261074f565b91507fffffffffffffffffffffffffffffffffffffffffffffffffffffffffffffffff8203610d1d57610d1c610cb1565b5b60018201905091905056fea26469706673582212204b3f7d6bbabb5827c2017dbb679f4928a513764870d5dc587962f1a33b8cd04c64736f6c63430008140033",
  "linkReferences": {},
  "deployedLinkReferences": {}
}